:1000000012C02CC02BC02AC029C028C027C026C0BF
:1000100025C024C023C022C021C020C0ACC21EC045
:100020001DC01CC01BC011241FBECFE5D4E0DEBF25
:10003000CDBF10E0A0E6B0E0E6E5FDE102C005902E
:100040000D92A43DB107D9F710E0A4EDB0E001C0D6
:100050001D92A83DB107E1F7A9D87BCED1CF73702F
:1000600097989B0196E0369527959A95E1F78295AA
:10007000807F822B8FB9779BFECF660F660F6FB99B
:10008000779BFECF979A0895CF93DF93FC01EB0106
:100090006AE070E06BDBAB0166EF64039001659F83
:1000A000300D11242E0F3F1F3F932F935F934F93DB
:1000B00083E890E09F938F93DF93CF93BBDB8DB763
:1000C0009EB708960FB6F8949EBF0FBE8DBFDF9106
:1000D000CF9108959F938F938CE890E09F938F9397
:1000E0007F936F93A7DB0F900F900F900F900F905F
:1000F0000F9008950F931F93CF93DF93EC018B0123
:100100004ED160E080E01DD181E990E0F2D0CE01D7
:10011000F0D085E990E0EDD060E081E012D188E98F
:1001200090E0E7D0C801E5D08CE990E0E2D0809182
:100130006100813041F0823019F462E081E005C055
:1001400081E08093610062E080E0FBD080EA90E093
:10015000D0D06DE080E0C09B04C0F3D082EA90E094
:1001600003C0EFD085EA90E0DF91CF911F910F910E
:10017000C0C0CF93DF9313D163E080E0E2D089EA7F
:1001800090E0B7D060E081E0DCD083EB90E0B1D0CC
:1001900061E081E0D6D0C091600004C084EC90E0C2
:1001A000A8D0C150C111FACF86EC90E0A2D0DDE01A
:1001B00033C019D1882381F190916000803111F40E
:1001C0009F5F01C0915090936000809160008531E5
:1001D00018F01092600020C08E3018F0D0936000AC
:1001E0001BC023E1829FC001112499BD88BD60E03E
:1001F00081E0A7D083EB90E07CD061E081E0A1D0EA
:10020000C091600004C084EC90E073D0C150C11173
:10021000FACF86EC90E06DD0FBD0811109C022D1DD
:10022000811106C049D1811103C070D1882309F220
:10023000DF91CF91089596988F7E8FB9779BFECFEF
:10024000969A959A8FE99FE00197F1F700C0000018
:10025000959808958E9A969ABA9AC29A8D9A2FEF87
:1002600082E597E0215080409040E1F700C0000017
:1002700083E0E1DF8FE19EE40197F1F700C0000029
:1002800083E0D9DF83E0D7DF82E0D5DF82E0D3DF10
:1002900088E0D1DF8FE99FE00197F1F700C000000F
:1002A00080E0C9DF88E0C7DF8FE99FE00197F1F7C1
:1002B00000C0000080E0BFDF86E0BDDF8FE99FE087
:1002C0000197F1F700C0000080E0B5DF8CE0B3DFFC
:1002D0008FE99FE00197F1F700C0000080E0ABDFFD
:1002E00081E0A9DF8FE99FE00197F1F700C00000EE
:1002F0000895FC0180E09191992311F19698292F9E
:1003000022952F7020612FB9779BFECF969A959AF0
:10031000AFE9BFE01197F1F700C0000095989698FB
:1003200090619FB9779BFECF969A959AAFE9BFE00F
:100330001197F1F700C0000095988F5F8431D9F6CE
:100340000895CF93C62F882319F08130F1F40EC0A1
:10035000262F30E0C90180589F4F34E0959587954E
:100360003A95E1F768DF8C2F80580DC0262F30E0DA
:10037000C90180549F4F24E0959587952A95E1F710
:100380005ADF8C2F8054CF9156CFCF91089580E0C3
:1003900052DF8EE050CF80E04EDF8CE04CCF80E02B
:1003A0004ADF81E048DF8FE99FE00197F1F700C065
:1003B0000000089581B3887F81BB929A81B3807FCA
:1003C00081BB939A81B3807E81BB949A84B3807FF2
:1003D00084BBAB9A84B3807E84BBAC9A84B3807CAC
:1003E00084BBAD9A089583B3869586958695837070
:1003F000E091D700EF7094E0E99FF0011124E80F3D
:10040000F11DED59FF4F80818093D70080730895CF
:10041000849913C08091620082FF0FC08FE39FE137
:100420000197F1F700C00000849907C08091620035
:100430008B7F8093620081E00895849B11C080913E
:10044000620082FD0DC08FE39FE10197F1F700C0CC
:100450000000849B05C080916200846080936200EC
:1004600080E00895839913C08091620083FF0FC0DC
:100470008FE39FE10197F1F700C00000839907C067
:1004800080916200877F8093620081E00895839B62
:1004900011C08091620083FD0DC08FE39FE1019741
:1004A000F1F700C00000839B05C080916200886066
:1004B0008093620080E00895829913C08091620069
:1004C00084FF0FC08FE39FE10197F1F700C00000A8
:1004D000829907C0809162008F7E8093620081E0E4
:1004E0000895829B11C08091620084FD0DC08FE34E
:1004F0009FE10197F1F700C00000829B05C0809149
:10050000620080618093620080E008959D9913C02D
:100510008091620085FF0FC08FE39FE10197F1F7A3
:1005200000C000009D9907C0809162008F7D80937C
:10053000620081E008959D9B11C08091620085FD5D
:100540000DC08FE39FE10197F1F700C000009D9B74
:1005500005C08091620080628093620080E008950F
:1005600087B187B981E08093D40088E886B986B1E5
:10057000876086B908951F920F920FB60F921124CB
:100580008F939F9384B195B19093D6008093D500BB
:100590008091D40080648093D4009F918F910F90BC
:1005A0000FBE0F901F90189510BC87E689B988E19F
:1005B0008AB98EE880BD08955D9BFECF8CB9089501
:1005C0001F93CF93DF93EC0110E08991882321F0F2
:1005D000F3DF1F5F1436C9F7DF91CF911F910895A4
:1005E0005F9B02C08CB1089580E008955F9BFECFB1
:1005F0002CB1922F80E05F9BFECF2CB1AC01422B3F
:100600009A01C9010895CF92DF92EF92FF920F9362
:100610001F936B017C0120E030E040E05FE444D3B5
:1006200087FD0CC020E030E040E05FE4C701B60188
:1006300093D164D38B019C01305805C0C701B6012A
:100640005DD38B019C01B801C9011F910F91FF90EF
:10065000EF90DF90CF900895A4E0B0E0E1E3F3E005
:100660009BC87C016A01FC018081823008F44AC188
:10067000FB019081923008F442C1843079F49430C7
:1006800009F040C1F7019181FB018181981709F4BC
:1006900039C1ABE7EA2EA0E0FA2E34C1943009F458
:1006A0002EC1923091F4823009F02CC188E0F7011C
:1006B000DA0101900D928A95E1F7FB018181F70142
:1006C00091818923FA0181831CC1823009F417C109
:1006D000F70182819381FB01A281B381F70104813B
:1006E000158126813781FB0184809580A680B780A3
:1006F000FC01EA1BFB0BAF01F7FF04C044275527A1
:100700004E1B5F0B403251050CF074C01E161F06C5
:10071000B4F524013501042E04C0769467945794EF
:1007200047940A94D2F749825A826B827C82412C88
:10073000512C3201439404C0440C551C661C771C98
:100740004A95D2F741E0441A5108610871084820DF
:1007500059206A207B20812C912C540183944528B8
:100760004628472819F4812C912C540149805A803D
:100770006B807C8084289528A628B72846C0EF2B5C
:1007800009F443C0840F951F28013901042E04C0C9
:1007900076946794579447940A94D2F749825A8280
:1007A0006B827C82412C512C3201439404C0440C56
:1007B000551C661C771C4A95D2F741E0441A510833
:1007C00061087108402251226222732201E010E088
:1007D00020E030E045284628472819F400E010E0E2
:1007E000980149805A806B807C800429152926292C
:1007F00037290BC0A817B90724F4812C912C540178
:1008000004C0CD0100E010E09801F7014181FB0137
:100810005181451709F446C0442349F024013501AC
:10082000401A510A620A730A9301820104C008192E
:1008300019092A093B0937FD05C0F6011182938386
:1008400082830CC041E0F60141839383828330951B
:100850002095109501951F4F2F4F3F4F048315830F
:10086000268337830EC0880F991FAA1FBB1FF6016E
:1008700084839583A683B783828193810197938331
:100880008283F60184819581A681B781AC01BD0187
:1008900041505109610971094F3F5F4F6F4F7F43CD
:1008A00010F30CC0F601418393838283080D191D58
:1008B0002A1D3B1D048315832683378383E0F601BD
:1008C0008083448155816681778177FF1AC0DB017F
:1008D000CA0181709927AA27BB27769567955795F6
:1008E0004795842B952BA62BB72B84839583A683C2
:1008F000B7838281938101969383828302C07B01B7
:1009000001C07601C7012496E0E162C7A0E2B0E031
:10091000EBE8F4E04FC76D8F7E8F8F8F98A3298F00
:100920003A8F4B8F5C8FBE016F5E7F4FCE014D962D
:100930006DD3BE01675F7F4FCE01499667D3AE018D
:100940004F5F5F4FBE01675F7F4FCE01419684DEF0
:1009500093D2A096E2E04AC7A0E2B0E0E1EBF4E077
:1009600029C76D8F7E8F8F8F98A3298F3A8F4B8FDA
:100970005C8FBE016F5E7F4FCE014D9647D3BE01A7
:10098000675F7F4FCE01499641D38A8591E08927E1
:100990008A87AE014F5F5F4FBE01675F7F4FCE0119
:1009A00041965ADE69D2A096E2E020C7A0E2B0E00C
:1009B000EBEDF4E0F1C66D8F7E8F8F8F98A3298FBA
:1009C0003A8F4B8F5C8FBE016F5E7F4FCE014D968D
:1009D0001DD3BE01675F7F4FCE01499617D399891A
:1009E000923008F412C08985823008F41AC094301D
:1009F00021F4823009F4B4C008C0843021F492306C
:100A000009F4AEC00EC0923051F481E02A899A8573
:100A1000291301C080E08A8BCE014196A3C08230A9
:100A200051F481E02A899A85291301C080E08A87E0
:100A3000CE01099697C08D889E88AF88B88C0D85A9
:100A40001E852F853889E0E2F0E080E090E0DC014F
:100A5000C12CD12C760140E050E0BA0180FE18C0D4
:100A6000400F511F621F731F8C0D9D1DAE1DBF1DBA
:100A7000412C512C320143944017510762077307F0
:100A800018F0412C512C3201840D951DA61DB71D67
:100A9000CC0CDD1CEE1CFF1C37FF02C06894C0F8B4
:100AA000000F111F221F331FB694A79497948794A9
:100AB0003197A1F62B893C89EB85FC852E0F3F1FD2
:100AC0002E5F3F4F3C832B8321E0EA893A85E31375
:100AD00001C020E02A83EB81FC810CC080FF05C0AF
:100AE00076956795579547957068B695A7959795AC
:100AF00087953196B7FDF2CF9F010CC0880F991FE3
:100B0000AA1FBB1F77FD8160440F551F661F771F0B
:100B1000215031090097A105E0E4BE0778F32B834B
:100B20003C838C019D010F77112722273327003446
:100B300011052105310559F487FD09C0452B462BC8
:100B4000472B29F0805C9F4FAF4FBF4F80788D833C
:100B50009E83AF83B88783E08983CE01019602C06C
:100B60008BE790E089D1A096E0E132C6A8E1B0E041
:100B7000EBEBF5E019C66D8B7E8B8F8B988F298BF5
:100B80003A8B4B8B5C8BBE01675F7F4FCE014596E6
:100B90003DD2BE016F5F7F4FCE01419637D299851E
:100BA000923008F475C08981823008F474C02A85B7
:100BB0003A8123272A87943011F0923019F4981340
:100BC00067C06CC0843039F41D861E861F86188A63
:100BD0001C861B8604C0823029F484E08987CE01FC
:100BE00009965EC08B859C852B813C81821B930B73
:100BF0009C878B874D855E856F857889CD80DE806B
:100C0000EF80F8844C155D056E057F0538F4440FC0
:100C1000551F661F771F01979C878B87EFE1F0E0D8
:100C200000E010E020E030E480E090E0DC014C15D2
:100C30005D056E057F0540F0802B912BA22BB32B19
:100C40004C195D096E097F0936952795179507950B
:100C5000440F551F661F771F319749F78C019D017F
:100C60000F7711272227332700341105210531057D
:100C700059F487FD09C0452B462B472B29F0805C92
:100C80009F4FAF4FBF4F80788D879E87AF87B88BC0
:100C9000CE01099605C0CE01019602C08BE790E017
:100CA000EBD06896E8E09CC5A8E1B0E0E9E5F6E0A5
:100CB00081C56D8B7E8B8F8B988F298B3A8B4B8B5D
:100CC0005C8BBE01675F7F4FCE0145969FD1BE0111
:100CD0006F5F7F4FCE01419699D18985823050F068
:100CE0008981823038F0BE016F5F7F4FCE01099657
:100CF000FCD101C08FEF6896E2E078C5ACE0B0E0CF
:100D0000E3E8F6E055C569877A878B879C87BE0143
:100D10006F5F7F4FCE01099679D18981823091F141
:100D2000823080F1843041F48A81882331F100E0FF
:100D300010E020E030E829C02B813C8137FD22C043
:100D40002F3131058CF78EE190E0821B930B0D81E2
:100D50001E812F81388504C03695279517950795F4
:100D60008A95D2F78A81882381F030952095109555
:100D700001951F4F2F4F3F4F08C00FEF1FEF2FEF71
:100D80003FE703C000E010E09801B801C9012C96CC
:100D9000E4E02AC5A8E0B0E0EFECF6E005C58B0181
:100DA0009C011A82611571058105910519F482E093
:100DB00089835CC083E089834EE150E05C834B8390
:100DC000C901B8011ED5019797FF39C0EE27FF274B
:100DD000E81BF90B41E050E060E070E00E2E04C02B
:100DE000440F551F661F771F0A94D2F741505109CF
:100DF000610971094023512362237323C12CD12C33
:100E00007601C394452B462B472B19F4C12CD12CCA
:100E1000760104C03695279517950795EA95D2F780
:100E20000C291D292E293F290D831E832F833887E6
:100E30002EE130E0281B390B3C832B8317C0009731
:100E400029F40D831E832F83388710C0082E04C019
:100E5000000F111F221F331F0A94D2F70D831E8328
:100E60002F833887481B590B5C834B83CE01019637
:100E700003D02896E8E0B4C40F931F93CF93DF9379
:100E8000DC0114964D915D916D917C9117971196AF
:100E9000EC9111978C91823020F460618FEF90E09B
:100EA000A6C0843009F49EC0823009F495C0411573
:100EB00051056105710509F492C012962D913C917E
:100EC000139722388FEF38070CF058C0C2E8DFEFD5
:100ED000C21BD30BCA31D1056CF58A019B010C2EC4
:100EE00004C036952795179507950A94D2F781E0A7
:100EF00090E0A0E0B0E00C2E04C0880F991FAA1F5C
:100F0000BB1F0A94D2F70197A109B1098423952345
:100F1000A623B72341E050E060E070E0892B8A2BE4
:100F20008B2B19F440E050E0BA01402B512B622B7F
:100F3000732B03C040E050E0BA01DB01CA018F7798
:100F40009927AA27BB2780349105A105B10539F45B
:100F500047FF09C0405C5F4F6F4F7F4F04C0415C4B
:100F60005F4F6F4F7F4F81E090E041155105610564
:100F700020E4720748F580E090E026C02038310573
:100F80008CF5DB01CA018F779927AA27BB2780340C
:100F90009105A105B10539F447FF09C0405C5F4FD9
:100FA0006F4F7F4F04C0415C5F4F6F4F7F4F77FDA6
:100FB00004C0C90181589F4F07C076956795579522
:100FC0004795C90180589F4F97E07695679557954B
:100FD00047959A95D1F70BC080E090E005C080E07E
:100FE00090E005C08FEF90E040E050E0BA01982F0C
:100FF0009695E0FB97F9362F80FB37F9642F752F14
:10100000832FDF91CF911F910F910895CF92DF929F
:10101000EF92DC01FB01CC901196DC9011971296B7
:101020008C9112973FE7E32EE8226E2DA60170E027
:10103000982F991F9927991F13962C91822F880F0B
:10104000892B90E027FB222720F92183009729F59F
:10105000411551056105710511F482E027C082E850
:101060009FEF9383828327E0440F551F661F771FEE
:101070002A95D1F783E0808309C0440F551F661F6E
:10108000771F828193810197938382834115510554
:10109000610580E4780788F320C08F3F910579F4DB
:1010A000411551056105710519F484E0808319C06B
:1010B000E4FE03C081E0808310C010820EC08F5711
:1010C00091099383828383E0808387E0440F551FD7
:1010D000661F771F8A95D1F77064448355836683B2
:1010E0007783EF90DF90CF900895CF93FC01DB01E1
:1010F0009081923008F452C08C91823008F44EC036
:10110000943071F4843039F411962C9130E081815F
:10111000281B310948C08181882309F43FC03BC0A6
:10112000843029F411968C91811138C034C09230EA
:1011300019F48230B9F735C0823069F3C181119654
:101140008C911197C8131DC02281338112968D9105
:101150009C911397821793070CF413C02817390733
:101160000CF417C0448155816681778114968D9166
:101170009D910D90BC91A02D84179507A607B707E8
:1011800018F4C11108C00AC0481759076A077B073D
:1011900040F4C11103C02FEF3FEF05C021E030E064
:1011A00002C020E030E0C901CF910895CF93DF93D2
:1011B000CDB7DEB7C857D1090FB6F894DEBF0FBE62
:1011C000CDBF17BA14BA11BAF5D88F9A979AB89AB0
:1011D000C098BB9ABD9A81E58DB9B99ABA9A80EA4E
:1011E0008FBD8FB589608FBD80E890E09BBD8ABDC3
:1011F0008091600023E1829FC001112499BD88BDC8
:1012000081E08EBD27D864E080E09BD888EC90E038
:1012100070D866E081E095D880ED90E06AD83FEF25
:1012200083ED90E3315080409040E1F700C0000032
:10123000B6D83E012BE5620E711CB30180E090E050
:1012400023D79E012F5A3F4FB90180E090E0E896E6
:101250002FAFE897E9963FAFE99716D7AE01435C09
:101260005F4FBA0180E090E0E6964FAFE697E796D1
:101270005FAFE79709D7CE018996A7969FAF8EAF4C
:10128000A797BC0180E090E025D72E0195E1490E9B
:10129000511CB20180E090E0F7D68E010F5F1F4F26
:1012A000B80180E090E016D75BD97ED9B801C201C1
:1012B00021D76DD860E1C62E67E2D62E212C312CC5
:1012C000A12CB12CAB961FAE1EAEAB97A9961FAE4C
:1012D0001EAEA997E1961FAE1EAEE197E12CF12C50
:1012E000AF961FAE1EAEAF97962C872CA6967FACFE
:1012F000A697A7966FACA797AC964FAEAC97AD9656
:101300005FAEAD97502E412EE6964FADE697E7962D
:101310005FADE797E2964FAFE297E3965FAFE39753
:10132000E8962FADE897E9963FADE997E4962FAFA1
:10133000E497E5963FAFE5976BD8882351F0C09BC3
:1013400002C0C09801C0C09A672D762D892D982DB6
:10135000D1D688D8882331F00CD7672D762D892DEA
:10136000982DC8D6D3D88823B9F0809161008130F8
:1013700019F0823049F404C022E02093610007C0D4
:1013800031E03093610003C081E080936100672DFC
:10139000762D892D982DAED626D8882309F461C0E4
:1013A00090916100913021F0923009F05AC02AC02A
:1013B000803119F4C501019602C0C501019781363B
:1013C0002AEE920740F45C01893C910530F058EC1C
:1013D000A52EB12C02C0A12CB12CB50180E090E06B
:1013E000D9DC2DE93FE64AE65EE3C0DB0CD989E0B3
:1013F00036D6AC966FADAC97AD967FADAD97C501C7
:1014000043D625C0803119F4C101019602C0C10143
:10141000019781362AEE920740F41C01853691052A
:1014200030F044E6242E312C02C0212C312CB101A5
:1014300080E090E0AFDC24E139E649E05EE396DB52
:10144000E2D88AE00CD6652D742DC10143D6652DF6
:10145000742DAC968FADAC97AD969FADAD974AD637
:1014600080C1C114D10451F48091D40085FD09C01C
:1014700080628093D400369A789403C081E0C81AC1
:10148000D1088091D40086FFD9C0F8948091D4000F
:101490008F798230C9F020F4813009F0A4C006C0F1
:1014A000843041F1883009F09EC03BC08091D50066
:1014B0009091D600E80EF91E92E09093D40087B187
:1014C000807F87B9389ABAC08091D5009091D600B4
:1014D000A9962EAD3FADA997280F391FA9963FAF0A
:1014E0002EAFA99734E03093D40087B1807F87B9BD
:1014F000399AA4C08091D5009091D600AB962EADBC
:101500003FADAB97280F391FAB963FAF2EAFAB97D0
:1015100088E08093D40087B1807F87B987B18660E7
:1015200069C0C090D500D090D60031E03093D4008F
:1015300087B1807F87B987B187B9B70180E090E034
:1015400029DC23E738E24EE85EE330DA5CD8DC01E0
:10155000CB018C01692D782D97D5A9962EAD3FAD85
:10156000A997B90180E090E015DC24E139E649E073
:101570005EE31CDA48D8DC01CB017C01672D762DB7
:10158000A9D5AB962EAD3FADAB97B90180E090E009
:1015900001DC23E738E24EE85EE308DA34D8DC0108
:1015A000CB01E2966FADE297E3967FADE3976CD502
:1015B000B60180E090E0EEDB23E738E24EE85EE340
:1015C000F5D921D8DC01CB01E4966FADE497E5961F
:1015D0007FADE59759D5AF968EAD9FADAF97081704
:1015E000190789F409C091E09093D40087B1807FF6
:1015F00087B987B187B922C0E1962EAD3FADE1979B
:10160000E216F30669F0672D762D892D982D72D597
:10161000E196FFAEEEAEE197AF961FAF0EAFAF977C
:1016200030E1C32E37E2D32EAB961FAE1EAEAB9782
:10163000A9961FAE1EAEA997E12CF12CD1D7992700
:10164000803D910509F44DC0B4F4813C910509F445
:1016500052C044F4803A910521F1803C910509F093
:101660006BCE22C0823C910509F472C0833C910587
:1016700009F062CE6FC0833D910509F461C04CF45E
:10168000813D910509F44FC0823D910509F054CE8A
:1016900050C0803E910541F1813E910509F04CCE4C
:1016A00045C081EA89D748CEA1D78C01813D37E07A
:1016B000930708F041CEBC0180E090E06BDB2DE9A0
:1016C0003FE64AE65EE352DA9ED789E0C8D4AC969C
:1016D0006FADAC97AD967FADAD97C801D5D458012D
:1016E0002BCE892D982D32C0AC968FADAC97AD9690
:1016F0009FADAD972BC07AD78C018536910508F048
:101700001BCEBC0180E090E045DB24E139E649E0F6
:101710005EE32CDA78D78AE0A2D4652D742DC80157
:10172000D9D4180109CE872D962D10C0852D942D62
:101730000DC0E4968FADE497E5969FADE59706C0A2
:10174000E2968FADE297E3969FADE39739D7F4CD5C
:10175000C09A01C0C098672D762D892D982DCAD4C6
:10176000EBCD20E5C22E23ECD22E88CEAA1BBB1BCC
:1017700051E107C0AA1FBB1FA617B70710F0A61B91
:10178000B70B881F991F5A95A9F780959095BC01B2
:10179000CD0108952F923F924F925F926F927F9268
:1017A0008F929F92AF92BF92CF92DF92EF92FF9271
:1017B0000F931F93CF93DF93CDB7DEB7CA1BDB0B1D
:1017C0000FB6F894DEBF0FBECDBF09942A883988C2
:1017D00048885F846E847D848C849B84AA84B984C9
:1017E000C884DF80EE80FD800C811B81AA81B981D5
:1017F000CE0FD11D0FB6F894DEBF0FBECDBFED01E9
:10180000089506D084FF0895CB0102D0805F08952B
:10181000AA27992329F4A85F982B11F480E1089551
:10182000903118F4AD5F9295A395990FE8F78A2F40
:1018300099270895A0E1B0E0EFE1FCE0B9CF0F896E
:10184000188D86E08C831A8309838FEF9FE79E8330
:101850008D83AE01455E5F4F588B4F87698D7A8DC2
:10186000CE01019608D0EF81F885E00FF11F1082BC
:101870006096E4E0B9CFACE0B0E0E0E4FCE08ACF11
:101880007C016B018A01FC0117821682838181FF32
:10189000BAC188248394912C8C0E9D1EF7019381EC
:1018A000F60193FD859193FF81916F01882309F4DF
:1018B000A6C1853239F493FD859193FF81916F0123
:1018C000853221F4B70190E0BAD1E8CF712C312CE8
:1018D00020E02032A8F48B3261F028F4803251F0FD
:1018E000833271F40BC08D3239F0803349F42160BA
:1018F00028C02260246025C0286023C0206121C048
:1019000027FD27C0382F30533A3078F426FF06C021
:10191000FAE07F9E300D1124732E13C08AE0389EAA
:10192000300D1124332E20620CC08E3221F426FD9E
:1019300066C1206406C08C3611F4206802C0883667
:1019400041F4F60193FD859193FF81916F0181111F
:10195000C0CF982F9554933018F09052933028F4BC
:101960000C5F1F4FFFE3F9830DC0833631F08337DF
:1019700071F0833509F05AC022C0F8018081898353
:101980000E5F1F4F66246394712C540114C028010C
:10199000F2E04F0E511CF801A080B18026FF03C079
:1019A000672D70E002C06FEF7FEFC5012C873CD13F
:1019B0003C0182012C856FE7262E222217C02801C8
:1019C000F2E04F0E511CF801A080B18026FF03C049
:1019D000672D70E002C06FEF7FEFC5012C8719D132
:1019E0003C012C8550E8252E222A820123FC1AC0B6
:1019F00005C0B70180E290E022D13A94832D90E0B7
:101A000068167906B0F30EC0F50127FC859127FE14
:101A100081915F01B70190E012D131103A94F1E069
:101A20006F1A71086114710479F7E6C0843611F0F9
:101A3000893639F5F80127FF07C0608171818281FD
:101A400093810C5F1F4F08C060817181882777FDEB
:101A50008095982F0E5F1F4F4FE6642E622297FFEE
:101A600009C090958095709561957F4F8F4F9F4FDE
:101A7000F0E86F2A2AE030E0A4010DD1A82EA818C2
:101A800043C0853731F43FEEB32EB2222AE030E076
:101A900024C099EFB92EB2228F36B9F020F48835E0
:101AA00009F0ADC00DC0803721F0883709F0A7C01C
:101AB00002C020E1B22AB4FE0BC084E0B82A08C0FC
:101AC00024FF09C0E6E0BE2A06C028E030E005C0D9
:101AD00020E130E002C020E132E0F801B7FE07C0AB
:101AE00060817181828193810C5F1F4F06C060818C
:101AF000718180E090E00E5F1F4FA401CCD0A82E32
:101B0000A8188FE7682E6B2066FE0BC0362D3E7F2F
:101B1000A71450F464FE0AC062FC08C0362D3E7E55
:101B200005C0BA2C362D03C0BA2C01C0B72C34FF27
:101B30000DC0FE01EA0DF11D8081803311F4397E64
:101B400009C032FF06C0B394B39404C0832F8678D3
:101B500009F0B39433FD13C030FF0EC07A2CB314D8
:101B600058F4730C7B18B32C07C0B70180E290E0E7
:101B70003C8765D0B3943C85B314B8F304C0B31468
:101B800010F43B1801C0312C34FF11C0B70180E3C1
:101B900090E03C8754D03C8532FF1CC031FF03C02D
:101BA00088E590E002C088E790E0B7010CC0832F81
:101BB000867881F031FD02C080E201C08BE237FD02
:101BC0008DE2B70190E03BD005C0B70180E390E023
:101BD00036D07A94A714C8F3AA94F401EA0DF11D43
:101BE000B701808190E02BD0A110F6CF05C0B701DE
:101BF00080E290E024D03A943110F9CF4FCEF70133
:101C00002681378102C02FEF3FEFC9012C96E2E118
:101C1000DDCDFC010590615070400110D8F7809532
:101C200090958E0F9F1F0895FC01615070400190A8
:101C30000110D8F7809590958E0F9F1F08950F93F0
:101C40001F93CF93DF938C01EB018B8181FD03C048
:101C50000FEF1FEF1AC082FF0DC02E813F818C81D4
:101C60009D812817390764F4E881F9810193F9838C
:101C7000E88306C0E885F985802F0995892B41F70F
:101C80008E819F8101969F838E83C801DF91CF91C2
:101C90001F910F910895FA01AA27283051F12031A0
:101CA00081F1E8946F936E7F6E5F7F4F8F4F9F4FF0
:101CB000AF4FB1E03ED0B4E03CD0670F781F891F32
:101CC0009A1FA11D680F791F8A1F911DA11D6A0F00
:101CD000711D811D911DA11D20D009F468943F91B3
:101CE0002AE0269F11243019305D3193DEF6CF01B2
:101CF0000895462F4770405D4193B3E00FD0C9F778
:101D0000F6CF462F4F70405D4A3318F0495D31FDE4
:101D10004052419302D0A9F7EACFB4E0A695979537
:101D2000879577956795BA95C9F70097610571050D
:101D300008959B01AC010A2E069457954795379557
:101D40002795BA95C9F7620F731F841F951FA01DB1
:061D50000895F894FFCF96
:101D56000A01FF000104000001001202050302103F
:101D66000203020000042220050202000000000017
:101D76000000002533692E2530316900253369308E
:101D860000563A2000205600493A2000206D4100B6
:101D96007E004F4E004F4646004261636B6C69679A
:101DA6006874005B20202020202020202020202076
:101DB60020205D003D003E006469676974616C0027
:041DC6005053550021
:00000001FF
