:1000000012C02CC02BC02AC029C028C027C026C0BF
:1000100025C024C023C022C021C020C02CC31EC0C4
:100020001DC01CC01BC011241FBECFE5D4E0DEBF25
:10003000CDBF10E0A0E6B0E0E4E9F9E102C0059030
:100040000D92A63CB107D9F711E0A6ECB0E001C0D3
:100050001D92A633B107E1F72BD99ACCD1CFCF931C
:10006000DF93EC0179D160E080E048D1CE011ED170
:100070002FEF83ED90E3215080409040E1F700C0E6
:100080000000DF91CF910895737097989B0196E0DF
:10009000369527959A95E1F78295807F822B8FB9C7
:1000A000779BFECF660F660F6FB9779BFECF979A4F
:1000B00008959C01FB01DB0180E090E01D92019618
:1000C0008A309105D9F7283E83E0380730F0C9011E
:1000D00068EE73E0F9DB605D01C060E260832436A6
:1000E000310548F0C90168EE73E0EEDB64E670E0CC
:1000F000EBDB605D01C060E261832A30310548F0CE
:10010000C90164E670E0E0DB6AE070E0DDDB605DC1
:1001100001C060E362838EE28383C9016AE070E01C
:10012000D3DB805D848308959C01FB01DB0180E0CB
:1001300090E01D9201968A309105D9F72436310559
:1001400030F0C90164E670E0BFDB605D01C060E2D1
:1001500060832A30310548F0C90164E670E0B4DB01
:100160006AE070E0B1DB605D01C060E26183C901FB
:100170006AE070E0A9DB805D828380E38383089579
:100180000F931F93CF93DF93CDB7DEB764970FB66E
:10019000F894DEBF0FBECDBF8B01BE01655F7F4F00
:1001A00088DFBE016F5F7F4FC801BEDFBE016F5F9A
:1001B0007F4FCE010B96E6D064960FB6F894DEBF63
:1001C0000FBECDBFDF91CF911F910F9108959698EB
:1001D0008F7E8FB9779BFECF969A959A8FE99FE095
:1001E0000197F1F700C0000095980895CF93C82FAC
:1001F000282F30E0C90180589F4F24E095958795BE
:100200002A95E1F7E4DF8C2F8058CF91E0CF8E9ACA
:10021000969ABA9AC29A8D9A2FEF82E597E021506A
:1002200080409040E1F700C0000083E0D0DF8FE124
:100230009EE40197F1F700C0000083E0C8DF83E08F
:10024000C6DF82E0C4DF82E0C2DF88E0C0DF8FE982
:100250009FE00197F1F700C0000080E0B8DF88E080
:10026000B6DF8FE99FE00197F1F700C0000080E062
:10027000AEDF86E0ACDF8FE99FE00197F1F700C0C9
:10028000000080E0A4DF8CE0A2DF8FE99FE001970F
:10029000F1F700C0000080E09ADF81E098DF8FE98D
:1002A0009FE00197F1F700C000000895FC0180E095
:1002B0009191992311F19698292F22952F70206101
:1002C0002FB9779BFECF969A959AAFE9BFE0119729
:1002D000F1F700C000009598969890619FB9779BC0
:1002E000FECF969A959AAFE9BFE01197F1F700C05B
:1002F000000095988F5F8431D9F60895CF93DF93EE
:100300001F92CDB7DEB7882319F08130C9F405C03C
:10031000862F0F90DF91CF9169CF262F30E0C90152
:1003200080549F4F34E0959587953A95E1F769831E
:100330004EDF6981862F80540F90DF91CF9147CF98
:100340000F90DF91CF91089580E041DF8EE03FCFA5
:1003500080E03DDF8CE03BCF80E039DF81E037DFBC
:100360008FE99FE00197F1F700C00000089584E055
:100370003DDF83E890E09ADF66E081E0BFDF8BE855
:1003800090E094CF0F931F93CF93DF93EC018B01F9
:10039000E3DF80E02BDF8FE890E088DFCE0186DFAF
:1003A00083E990E083DF60E081E0A8DF86E990E008
:1003B0007DDFC8017BDF8AE990E078DF8091610012
:1003C000813049F0823021F462E081E097DF05C09E
:1003D00081E08093610082E009DF8EE990E066DFD2
:1003E0008DE0C09B04C002DF80EA90E003C0FEDE27
:1003F00083EA90E0DF91CF911F910F9157CFCF9378
:10040000DF93C82FA9DF83E0F1DE87EA90E04EDFBB
:1004100060E081E073DF81EB90E048DF61E081E044
:100420006DDFDC2F04C082EC90E040DFD150D111B1
:10043000FACF23C058D0882339F1803111F4CF5F2F
:1004400001C0C150C531E8F4CE30E8F483E1C89F63
:100450009001112439BD28BD60E081E04FDF81EBC0
:1004600090E024DF61E081E049DFDC2F04C082EC12
:1004700090E01CDFD150D111FACF84EC90E016DF70
:1004800003C0C0E001C0CDE043D0811109C06AD0F3
:10049000811106C091D0811103C0B8D0882351F2D8
:1004A0008C2FDF91CF910895C09B02C0C098089512
:1004B000C09A089581B3887F81BB929A81B3807F6F
:1004C00081BB939A81B3807E81BB949A84B3807FF1
:1004D00084BBAB9A84B3807E84BBAC9A84B3807CAB
:1004E00084BBAD9A089583B386958695869583706F
:1004F000E0912701EF7094E0E99FF0011124E80FEB
:10050000F11DED59FF4F808180932701807308957D
:10051000849913C08091620082FF0FC08FE39FE136
:100520000197F1F700C00000849907C08091620034
:100530008B7F8093620081E00895849B11C080913D
:10054000620082FD0DC08FE39FE10197F1F700C0CB
:100550000000849B05C080916200846080936200EB
:1005600080E00895839913C08091620083FF0FC0DB
:100570008FE39FE10197F1F700C00000839907C066
:1005800080916200877F8093620081E00895839B61
:1005900011C08091620083FD0DC08FE39FE1019740
:1005A000F1F700C00000839B05C080916200886065
:1005B0008093620080E00895829913C08091620068
:1005C00084FF0FC08FE39FE10197F1F700C00000A7
:1005D000829907C0809162008F7E8093620081E0E3
:1005E0000895829B11C08091620084FD0DC08FE34D
:1005F0009FE10197F1F700C00000829B05C0809148
:10060000620080618093620080E008959D9913C02C
:100610008091620085FF0FC08FE39FE10197F1F7A2
:1006200000C000009D9907C0809162008F7D80937B
:10063000620081E008959D9B11C08091620085FD5C
:100640000DC08FE39FE10197F1F700C000009D9B73
:1006500005C08091620080628093620080E008950E
:1006600087B187B981E08093DC0088E886B986B1DC
:10067000876086B908951F920F920FB60F921124CA
:100680008F939F9384B195B19093DE008093DD00AA
:100690008091DC0080648093DC009F918F910F90AB
:1006A0000FBE0F901F90189510BC87E689B988E19E
:1006B0008AB98EE880BD08955D9BFECF8CB9089500
:1006C0001F93CF93DF93EC0110E08991811105C056
:1006D0008AE0DF91CF911F91EFCFEEDF1F5F1436DD
:1006E000A1F7F6CF5F9B02C08CB1089580E008951A
:1006F0005F9BFECF2CB1922F80E05F9BFECF2CB191
:10070000AC01422B9A01C9010895CF92DF92EF927A
:10071000FF920F931F936B017C0120E030E040E0DB
:100720005FE444D387FD0CC020E030E040E05FE4AC
:10073000C701B60193D164D38B019C01305805C029
:10074000C701B6015DD38B019C01B801C9011F919E
:100750000F91FF90EF90DF90CF900895A4E0B0E06C
:10076000E3EBF3E0C7C87C016A01FC0180818230C1
:1007700008F44AC1FB019081923008F442C18430F0
:1007800079F4943009F040C1F7019181FB01818136
:10079000981709F439C1ABE7EA2EA0E0FA2E34C16C
:1007A000943009F42EC1923091F4823009F02CC1BA
:1007B00088E0F701DA0101900D928A95E1F7FB01DB
:1007C0008181F70191818923FA0181831CC18230E3
:1007D00009F417C1F70182819381FB01A281B381E2
:1007E000F7010481158126813781FB018480958082
:1007F000A680B780FC01EA1BFB0BAF01F7FF04C02A
:10080000442755274E1B5F0B403251050CF074C036
:100810001E161F06B4F524013501042E04C076947B
:100820006794579447940A94D2F749825A826B820C
:100830007C82412C512C3201439404C0440C551C41
:10084000661C771C4A95D2F741E0441A51086108AA
:100850007108482059206A207B20812C912C54015A
:10086000839445284628472819F4812C912C54015B
:1008700049805A806B807C8084289528A628B728D8
:1008800046C0EF2B09F443C0840F951F280139019E
:10089000042E04C076946794579447940A94D2F730
:1008A00049825A826B827C82412C512C32014394C2
:1008B00004C0440C551C661C771C4A95D2F741E0D5
:1008C000441A5108610871084022512262227322A1
:1008D00001E010E020E030E045284628472819F4E0
:1008E00000E010E0980149805A806B807C800429E8
:1008F0001529262937290BC0A817B90724F4812CFC
:10090000912C540104C0CD0100E010E09801F701E2
:100910004181FB015181451709F446C0442349F048
:1009200024013501401A510A620A730A93018201B7
:1009300004C0081919092A093B0937FD05C0F60149
:100940001182938382830CC041E0F601418393833B
:10095000828330952095109501951F4F2F4F3F4F63
:1009600004831583268337830EC0880F991FAA1F1F
:10097000BB1FF60184839583A683B783828193810D
:10098000019793838283F60184819581A681B78143
:10099000AC01BD0141505109610971094F3F5F4FE1
:1009A0006F4F7F4310F30CC0F60141839383828322
:1009B000080D191D2A1D3B1D0483158326833783CB
:1009C00083E0F6018083448155816681778177FFDA
:1009D0001AC0DB01CA0181709927AA27BB27769527
:1009E000679557954795842B952BA62BB72B84831A
:1009F0009583A683B78382819381019693838283B3
:100A000002C07B0101C07601C7012496E0E18EC7D8
:100A1000A0E2B0E0EDE0F5E07BC76D8F7E8F8F8FB9
:100A200098A3298F3A8F4B8F5C8FBE016F5E7F4FEB
:100A3000CE014D966DD3BE01675F7F4FCE014996C3
:100A400067D3AE014F5F5F4FBE01675F7F4FCE013F
:100A5000419684DE93D2A096E2E076C7A0E2B0E0B1
:100A6000E3E3F5E055C76D8F7E8F8F8F98A3298FB5
:100A70003A8F4B8F5C8FBE016F5E7F4FCE014D96DC
:100A800047D3BE01675F7F4FCE01499641D38A8528
:100A900091E089278A87AE014F5F5F4FBE01675F94
:100AA0007F4FCE0141965ADE69D2A096E2E04CC754
:100AB000A0E2B0E0EDE5F5E01DC76D8F7E8F8F8F72
:100AC00098A3298F3A8F4B8F5C8FBE016F5E7F4F4B
:100AD000CE014D961DD3BE01675F7F4FCE01499673
:100AE00017D39989923008F412C08985823008F4AE
:100AF0001AC0943021F4823009F4B4C008C08430A4
:100B000021F4923009F4AEC00EC0923051F481E06D
:100B10002A899A85291301C080E08A8BCE014196EB
:100B2000A3C0823051F481E02A899A85291301C03B
:100B300080E08A87CE01099697C08D889E88AF880D
:100B4000B88C0D851E852F853889E0E2F0E080E0C5
:100B500090E0DC01C12CD12C760140E050E0BA01DC
:100B600080FE18C0400F511F621F731F8C0D9D1D0A
:100B7000AE1DBF1D412C512C32014394401751072B
:100B80006207730718F0412C512C3201840D951D1A
:100B9000A61DB71DCC0CDD1CEE1CFF1C37FF02C0D0
:100BA0006894C0F8000F111F221F331FB694A7943A
:100BB000979487943197A1F62B893C89EB85FC8526
:100BC0002E0F3F1F2E5F3F4F3C832B8321E0EA898E
:100BD0003A85E31301C020E02A83EB81FC810CC03D
:100BE00080FF05C076956795579547957068B695CF
:100BF000A795979587953196B7FDF2CF9F010CC0C9
:100C0000880F991FAA1FBB1F77FD8160440F551FD6
:100C1000661F771F215031090097A105E0E4BE0748
:100C200078F32B833C838C019D010F7711272227BA
:100C30003327003411052105310559F487FD09C01A
:100C4000452B462B472B29F0805C9F4FAF4FBF4F62
:100C500080788D839E83AF83B88783E08983CE01BC
:100C6000019602C08BE790E089D1A096E0E15EC6D4
:100C7000A8E1B0E0EDE3F6E045C66D8B7E8B8F8B8F
:100C8000988F298B3A8B4B8B5C8BBE01675F7F4FB4
:100C9000CE0145963DD2BE016F5F7F4FCE0141969A
:100CA00037D29985923008F475C08981823008F472
:100CB00074C02A853A8123272A87943011F0923014
:100CC00019F4981367C06CC0843039F41D861E86F1
:100CD0001F86188A1C861B8604C0823029F484E093
:100CE0008987CE0109965EC08B859C852B813C81CE
:100CF000821B930B9C878B874D855E856F857889DA
:100D0000CD80DE80EF80F8844C155D056E057F0593
:100D100038F4440F551F661F771F01979C878B87F8
:100D2000EFE1F0E000E010E020E030E480E090E06F
:100D3000DC014C155D056E057F0540F0802B912B85
:100D4000A22BB32B4C195D096E097F0936952795A7
:100D500017950795440F551F661F771F319749F761
:100D60008C019D010F7711272227332700341105AD
:100D70002105310559F487FD09C0452B462B472B2A
:100D800029F0805C9F4FAF4FBF4F80788D879E8743
:100D9000AF87B88BCE01099605C0CE01019602C07F
:100DA0008BE790E0EBD06896E8E0C8C5A8E1B0E03A
:100DB000EBEDF6E0ADC56D8B7E8B8F8B988F298B1D
:100DC0003A8B4B8B5C8BBE01675F7F4FCE014596A4
:100DD0009FD1BE016F5F7F4FCE01419699D189852A
:100DE000823050F08981823038F0BE016F5F7F4FD2
:100DF000CE010996FCD101C08FEF6896E2E0A4C550
:100E0000ACE0B0E0E5E0F7E081C569877A878B87E1
:100E10009C87BE016F5F7F4FCE01099679D1898192
:100E2000823091F1823080F1843041F48A818823CC
:100E300031F100E010E020E030E829C02B813C8156
:100E400037FD22C02F3131058CF78EE190E0821BF7
:100E5000930B0D811E812F81388504C0369527950F
:100E6000179507958A95D2F78A81882381F0309566
:100E70002095109501951F4F2F4F3F4F08C00FEF42
:100E80001FEF2FEF3FE703C000E010E09801B8012B
:100E9000C9012C96E4E056C5A8E0B0E0E1E5F7E032
:100EA00031C58B019C011A8261157105810591057F
:100EB00019F482E089835CC083E089834EE150E0CD
:100EC0005C834B83C901B8014AD5019797FF39C0AC
:100ED000EE27FF27E81BF90B41E050E060E070E0EF
:100EE0000E2E04C0440F551F661F771F0A94D2F7B9
:100EF0004150510961097109402351236223732331
:100F0000C12CD12C7601C394452B462B472B19F4C9
:100F1000C12CD12C760104C03695279517950795DD
:100F2000EA95D2F70C291D292E293F290D831E830E
:100F30002F8338872EE130E0281B390B3C832B832D
:100F400017C0009729F40D831E832F83388710C0A4
:100F5000082E04C0000F111F221F331F0A94D2F75E
:100F60000D831E832F833887481B590B5C834B836B
:100F7000CE01019603D02896E8E0E0C40F931F93BA
:100F8000CF93DF93DC0114964D915D916D917C912F
:100F900017971196EC9111978C91823020F4606133
:100FA0008FEF90E0A6C0843009F49EC0823009F42F
:100FB00095C0411551056105710509F492C012965D
:100FC0002D913C91139722388FEF38070CF058C0C1
:100FD000C2E8DFEFC21BD30BCA31D1056CF58A0121
:100FE0009B010C2E04C036952795179507950A94FA
:100FF000D2F781E090E0A0E0B0E00C2E04C0880FB2
:10100000991FAA1FBB1F0A94D2F70197A109B10922
:1010100084239523A623B72341E050E060E070E0ED
:10102000892B8A2B8B2B19F440E050E0BA01402B1E
:10103000512B622B732B03C040E050E0BA01DB015F
:10104000CA018F779927AA27BB2780349105A1056C
:10105000B10539F447FF09C0405C5F4F6F4F7F4FC8
:1010600004C0415C5F4F6F4F7F4F81E090E04115BE
:101070005105610520E4720748F580E090E026C044
:10108000203831058CF5DB01CA018F779927AA2713
:10109000BB2780349105A105B10539F447FF09C08C
:1010A000405C5F4F6F4F7F4F04C0415C5F4F6F4F9D
:1010B0007F4F77FD04C0C90181589F4F07C07695C7
:1010C000679557954795C90180589F4F97E076954A
:1010D0006795579547959A95D1F70BC080E090E0BA
:1010E00005C080E090E005C08FEF90E040E050E068
:1010F000BA01982F9695E0FB97F9362F80FB37F9C8
:10110000642F752F832FDF91CF911F910F91089539
:10111000CF92DF92EF92DC01FB01CC901196DC9034
:10112000119712968C9112973FE7E32EE8226E2DCD
:10113000A60170E0982F991F9927991F13962C915B
:10114000822F880F892B90E027FB222720F921830B
:10115000009729F5411551056105710511F482E0EB
:1011600027C082E89FEF9383828327E0440F551FB7
:10117000661F771F2A95D1F783E0808309C0440F4B
:10118000551F661F771F8281938101979383828306
:1011900041155105610580E4780788F320C08F3F31
:1011A000910579F4411551056105710519F484E043
:1011B000808319C0E4FE03C081E0808310C01082E8
:1011C0000EC08F5791099383828383E0808387E0E9
:1011D000440F551F661F771F8A95D1F770644483AB
:1011E000558366837783EF90DF90CF900895CF93F8
:1011F000FC01DB019081923008F452C08C91823066
:1012000008F44EC0943071F4843039F411962C9166
:1012100030E08181281B310948C08181882309F48D
:101220003FC03BC0843029F411968C91811138C0A5
:1012300034C0923019F48230B9F735C0823069F386
:10124000C18111968C911197C8131DC022813381E1
:1012500012968D919C911397821793070CF413C0EB
:10126000281739070CF417C04481558166817781AE
:1012700014968D919D910D90BC91A02D841795078A
:10128000A607B70718F4C11108C00AC048175907C4
:101290006A077B0740F4C11103C02FEF3FEF05C081
:1012A00021E030E002C020E030E0C901CF91089594
:1012B00017BA14BA11BAFED88F9A979AB89AC098EA
:1012C000BB9ABD9A81E58DB9B99ABA9A80EA8FBD69
:1012D0008FB589608FBD80E890E09BBD8ABD80910D
:1012E000600023E1829FC001112499BD88BD81E087
:1012F0008EBD80E197E29093E0008093DF0020E5CF
:1013000033EC3093F4002093F30090930E0180931C
:101310000D018FE195E8A7E4B2E48093E10090939A
:10132000E200A093E300B093E4008DE99FE6AAE613
:10133000BEE38093190190931A01A0931B01B0930F
:101340001C0183E798E2AEE8BEE380930901909325
:101350000A01A0930B01B0930C0184E199E6A9E086
:10136000BEE38093280190932901A0932A01B093B2
:101370002B018093E5009093E600A093E700B093E3
:10138000E80045D76DD990D9F2D78FEF93ED20E3E0
:10139000815090402040E1F700C00000DDD760910F
:1013A000C6007091C7008091C8009091C900E8D62E
:1013B000CBD722E0822E99249394C1E0D0E008ECB0
:1013C00010E034E6E32EF12C44E0742E58E0652E54
:1013D0009FD8882331F068D865EF70E08FE091E006
:1013E000D1D7C0D8882351F08091600008D880936D
:1013F000600065EF70E08FE091E0C4D707D98823E3
:1014000079F080916100813009F003C08092610021
:1014100002C09092610065EF70E08FE091E0B2D77A
:1014200062D8882309F494C090916100913021F032
:10143000923009F08DC03EC02091C8003091C900A3
:10144000803119F42F5F3F4F02C021503109309392
:10145000C9002093C8008091C8009091C9008136CE
:101460002AEE920728F01092C9001092C80007C017
:10147000893C910520F01093C9000093C800609149
:10148000C8007091C90080E090E006DD209119014C
:1014900030911A0140911B0150911C01E9DB35D9B3
:1014A00089E0F2D56DE171E08091C8009091C900AA
:1014B00000D63DC02091C6003091C700803119F49C
:1014C0002F5F3F4F02C0215031093093C700209356
:1014D000C6008091C6009091C70081362AEE92071F
:1014E00028F01092C7001092C60007C085369105FB
:1014F00020F0F092C700E092C6006091C6007091A3
:10150000C70080E090E0C8DC2091280130912901DB
:1015100040912A0150912B01ABDBF7D88AE0B4D57A
:101520006FEF70E08091C6009091C700FDD56FEF1E
:1015300070E08DE191E026D78091F3009091F40066
:1015400090930E0180930D01D093DB00C093DA00DD
:1015500080910D0190910E01009751F48091DC0073
:1015600085FD0BC080628093DC00369A789405C0BC
:10157000019790930E0180930D018091DC0086FF0E
:1015800010C1F8948091DC008F79823001F120F451
:10159000813009F055C006C0843071F1883009F0FF
:1015A0004FC040C08091D6009091D7002091DD00BF
:1015B0003091DE00820F931F9093D7008093D60066
:1015C0008092DC0087B1807F87B9389A40C08091D3
:1015D000D2009091D3002091DD003091DE00820F87
:1015E000931F9093D3008093D2007092DC0087B158
:1015F000807F87B9399A2BC08091CE009091CF001F
:101600002091DD003091DE00820F931F9093CF0078
:101610008093CE006092DC0087B1807F87B987B16C
:10162000866014C08091CA009091CB002091DD00AB
:101630003091DE00820F931F9093CB008093CA00FD
:101640009092DC0087B1807F87B987B187B980919C
:10165000DC00883009F0A5C0A090D800B090D90077
:10166000C090D400D090D5006091D6007091D70082
:1016700080E090E011DC2091090130910A01409155
:101680000B0150910C0114DA40D8DC01CB0190938E
:10169000D9008093D8006FE071E00BD56091D20043
:1016A0007091D30080E090E0F7DB2091E50030916D
:1016B000E6004091E7005091E800FAD926D8DC0115
:1016C000CB019093D5008093D40065EF70E02CD5CA
:1016D0006091CE007091CF0080E090E0DDDB209142
:1016E000090130910A0140910B0150910C01E0D9A0
:1016F0000CD8DC01CB019093D1008093D00069EE2F
:1017000070E0D7D46091CA007091CB0080E090E087
:10171000C3DB2091090130910A0140910B015091E6
:101720000C01C6D9F2D7DC01CB019093CD00809398
:10173000CC006CE271E0BDD48091D8009091D900CA
:101740008A159B0569F48091D4009091D5008C1581
:101750009D0531F48091DA009091DB00019749F406
:1017600065EF70E08FE091E00DD61092DB001092F3
:10177000DA008091DF009091E00090930E01809359
:101780000D011092D7001092D6001092D300109243
:10179000D2001092CF001092CE001092CB00109287
:1017A000CA00A0D7843C09F486C088F4813C09F4BF
:1017B0004BC030F4803AF1F0803C09F009CE1CC0F7
:1017C000823C09F46FC0833C09F002CE6DC0823DBB
:1017D00009F461C030F4803D89F1813D09F0F8CD14
:1017E00054C0803E71F1813E09F452C0833D09F03E
:1017F000EFCD54C081EA64C07BD7813D27E09207DA
:1018000008F0E6CD9093C9008093C800BC0180E049
:1018100090E042DB2091190130911A0140911B01A7
:1018200050911C0125DA71D789E02ED46DE171E069
:101830008091C8009091C9003CD4CACD8FE091E05E
:101840002FC08DE191E02CC053D78536910508F06B
:10185000BFCD9093C7008093C600BC0180E090E0AC
:101860001BDB209128013091290140912A015091E0
:101870002B01FED94AD78AE007D46FEF70E0809140
:10188000C6009091C70050D4A3CD85EF90E008C06A
:101890008FEF90E005C08CE291E002C089EE90E00D
:1018A0000FD796CDC09A01C0C09865EF70E08FE069
:1018B00091E068D58DCDC09B02C081E301C080E37B
:1018C000FBD68AE0F9D684CDAA1BBB1B51E107C029
:1018D000AA1FBB1FA617B70710F0A61BB70B881FC0
:1018E000991F5A95A9F780959095BC01CD0108954F
:1018F0002F923F924F925F926F927F928F929F9220
:10190000AF92BF92CF92DF92EF92FF920F931F930D
:10191000CF93DF93CDB7DEB7CA1BDB0B0FB6F894BE
:10192000DEBF0FBECDBF09942A88398848885F84FE
:101930006E847D848C849B84AA84B984C884DF806F
:10194000EE80FD800C811B81AA81B981CE0FD11D53
:101950000FB6F894DEBF0FBECDBFED01089506D0DF
:1019600084FF0895CB0102D0805F0895AA279923B0
:1019700029F4A85F982B11F480E10895903118F4B0
:10198000AD5F9295A395990FE8F78A2F992708954F
:04199000F894FFCFF9
:101994000A01FF0001040000010012020503021005
:1019A40002030200000422200502020000000000DD
:1019B4000000004469676974616C00505355005617
:1019C4003A2000205600493A2000206D41007E0054
:1019D4004F4E004F4646004261636B6C6967687402
:1019E400005B2020202020202020202020202020D8
:0619F4005D003D003E0015
:00000001FF
