:1000000012C02CC02BC02AC029C028C027C026C0BF
:1000100025C024C023C022C021C020C060C31EC090
:100020001DC01CC01BC011241FBECFE5D4E0DEBF25
:10003000CDBF10E0A0E6B0E0E0E9F9E102C0059034
:100040000D92AC3CB107D9F710E0ACECB0E001C0C8
:100050001D92AA3FB107E1F75FD998CCD1CFCF93DA
:10006000DF93EC01ADD160E080E07CD1CE0152D1D4
:100070002FEF83ED90E3215080409040E1F700C0E6
:100080000000DF91CF910895737097989B0196E0DF
:10009000369527959A95E1F78295807F822B8FB9C7
:1000A000779BFECF660F660F6FB9779BFECF979A4F
:1000B00008959C01FB01DB0180E090E01D92019618
:1000C0008A309105D9F7283E83E0380730F0C9011E
:1000D00068EE73E0F7DB605D01C060E260832436A8
:1000E000310548F0C90168EE73E0ECDB64E670E0CE
:1000F000E9DB605D01C060E261832A30310548F0D0
:10010000C90164E670E0DEDB6AE070E0DBDB605DC5
:1001100001C060E362838EE28383C9016AE070E01C
:10012000D1DB805D84830895CF93DF93CDB7DEB7B5
:100130002A970FB6F894DEBF0FBECDBFBE016F5F2A
:100140007F4FB7DFCE010196EFD22A960FB6F89413
:10015000DEBF0FBECDBFDF91CF9108959C01FB01A3
:10016000DB0180E090E01D9201968A309105D9F77D
:100170002436310530F0C90164E670E0A3DB605D30
:1001800001C060E260832A30310548F0C90164E6AD
:1001900070E098DB6AE070E095DB605D01C060E2D2
:1001A0006183C9016AE070E08DDB805D828380E35A
:1001B00083830895CF93DF93CDB7DEB72A970FB629
:1001C000F894DEBF0FBECDBFBE016F5F7F4FC6DFAD
:1001D000CE010196A9D22A960FB6F894DEBF0FBEC3
:1001E000CDBFDF91CF9108950F931F93CF93DF93EE
:1001F000CDB7DEB764970FB6F894DEBF0FBECDBFA4
:100200008B01BE01655F7F4F54DFBE016F5F7F4F83
:10021000C801A4DFBE016F5F7F4FCE010B96E6D011
:1002200064960FB6F894DEBF0FBECDBFDF91CF91BD
:100230001F910F91089596988F7E8FB9779BFECF6F
:10024000969A959A8FE99FE00197F1F700C0000018
:1002500095980895CF93C82F282F30E0C901805872
:100260009F4F24E0959587952A95E1F7E4DF8C2F41
:100270008058CF91E0CF8E9A969ABA9AC29A8D9A68
:100280002FEF82E597E0215080409040E1F700C0D9
:10029000000083E0D0DF8FE19EE40197F1F700C01A
:1002A000000083E0C8DF83E0C6DF82E0C4DF82E0D5
:1002B000C2DF88E0C0DF8FE99FE00197F1F700C05F
:1002C000000080E0B8DF88E0B6DF8FE99FE00197AB
:1002D000F1F700C0000080E0AEDF86E0ACDF8FE920
:1002E0009FE00197F1F700C0000080E0A4DF8CE000
:1002F000A2DF8FE99FE00197F1F700C0000080E0E6
:100300009ADF81E098DF8FE99FE00197F1F700C065
:1003100000000895FC0180E09191992311F19698D5
:10032000292F22952F7020612FB9779BFECF969AA7
:10033000959AAFE9BFE01197F1F700C000009598DA
:10034000969890619FB9779BFECF969A959AAFE960
:10035000BFE01197F1F700C0000095988F5F8431DE
:10036000D9F60895CF93DF931F92CDB7DEB78823D8
:1003700019F08130C9F405C0862F0F90DF91CF911D
:1003800069CF262F30E0C90180549F4F34E0959506
:1003900087953A95E1F769834EDF6981862F80540E
:1003A0000F90DF91CF9147CF0F90DF91CF910895BC
:1003B00080E041DF8EE03FCF80E03DDF8CE03BCF4F
:1003C00080E039DF81E037DF8FE99FE00197F1F7C7
:1003D00000C00000089584E03DDF89E890E09ADFE6
:1003E00066E081E0BFDF81E990E094CF0F931F9337
:1003F000CF93DF93EC018B01E3DF80E02BDF85E916
:1004000090E088DFCE0186DF89E990E083DF60E05D
:1004100081E0A8DF8CE990E07DDFC8017BDF80EA26
:1004200090E078DF80916700813049F0823021F4DC
:1004300062E081E097DF05C081E08093670082E0A1
:1004400009DF84EA90E066DF8DE0C09B04C002DF34
:1004500086EA90E003C0FEDE89EA90E0DF91CF916A
:100460001F910F9157CFCF93DF93C82FA9DF83E060
:10047000F1DE8DEA90E04EDF60E081E073DF87EB34
:1004800090E048DF61E081E06DDFDC2F04C088ECA4
:1004900090E040DFD150D111FACF23C058D088234B
:1004A00039F1803111F4CF5F01C0C150C531E8F49A
:1004B000CE30E8F483E1C89F9001112439BD28BDF6
:1004C00060E081E04FDF87EB90E024DF61E081E0D6
:1004D00049DFDC2F04C088EC90E01CDFD150D11143
:1004E000FACF8AEC90E016DF03C0C0E001C0CDE097
:1004F00043D0811109C06AD0811106C091D0811109
:1005000003C0B8D0882351F28C2FDF91CF9108958A
:10051000C09B02C0C0980895C09A089581B3887F97
:1005200081BB929A81B3807F81BB939A81B3807E95
:1005300081BB949A84B3807F84BBAB9A84B3807E62
:1005400084BBAC9A84B3807C84BBAD9A089583B39A
:100550008695869586958370E091F500EF7094E01E
:10056000E99FF0011124E80FF11DE759FF4F808149
:100570008093F50080730895849913C0809168007A
:1005800082FF0FC08FE39FE10197F1F700C00000E9
:10059000849907C0809168008B7F8093680081E018
:1005A0000895849B11C08091680082FD0DC08FE387
:1005B0009FE10197F1F700C00000849B05C0809186
:1005C000680084608093680080E00895839913C078
:1005D0008091680083FF0FC08FE39FE10197F1F7DF
:1005E00000C00000839907C080916800877F8093D6
:1005F000680081E00895839B11C08091680083FDAD
:100600000DC08FE39FE10197F1F700C00000839BCD
:1006100005C08091680088608093680080E008953C
:10062000829913C08091680084FF0FC08FE39FE11F
:100630000197F1F700C00000829907C0809168001F
:100640008F7E8093680081E00895829B11C0809125
:10065000680084FD0DC08FE39FE10197F1F700C0B2
:100660000000829B05C080916800806180936800D3
:1006700080E008959D9913C08091680085FF0FC0A8
:100680008FE39FE10197F1F700C000009D9907C03B
:10069000809168008F7D8093680081E008959D9B24
:1006A00011C08091680085FD0DC08FE39FE1019727
:1006B000F1F700C000009D9B05C08091680080623A
:1006C0008093680080E0089587B187B981E08093C6
:1006D000E20088E886B986B1876086B908951F92DE
:1006E0000F920FB60F9211248F939F9384B195B1FF
:1006F0009093E4008093E3008091E2008064809313
:10070000E2009F918F910F900FBE0F901F90189550
:1007100010BC87E689B988E18AB98EE880BD089562
:100720005D9BFECF8CB908951F93CF93DF93EC01AF
:1007300010E08991811105C08AE0DF91CF911F916E
:10074000EFCFEEDF1F5F1436A1F7F6CF5F9B02C03D
:100750008CB1089580E008955F9BFECF2CB1922F5D
:1007600080E05F9BFECF2CB1AC01422B9A01C90106
:100770000895CF92DF92EF92FF920F931F936B0138
:100780007C0120E030E040E05FE444D387FD0CC012
:1007900020E030E040E05FE4C701B60193D164D3CC
:1007A0008B019C01305805C0C701B6015DD38B0198
:1007B0009C01B801C9011F910F91FF90EF90DF904C
:1007C000CF900895A4E0B0E0E7EEF3E091C87C019B
:1007D0006A01FC018081823008F44AC1FB019081EA
:1007E000923008F442C1843079F4943009F040C169
:1007F000F7019181FB018181981709F439C1A1E8C2
:10080000EA2EA0E0FA2E34C1943009F42EC19230C1
:1008100091F4823009F02CC188E0F701DA010190EF
:100820000D928A95E1F7FB018181F701918189237E
:10083000FA0181831CC1823009F417C1F70182815A
:100840009381FB01A281B381F70104811581268187
:100850003781FB0184809580A680B780FC01EA1B6C
:10086000FB0BAF01F7FF04C0442755274E1B5F0B5E
:10087000403251050CF074C01E161F06B4F5240159
:100880003501042E04C076946794579447940A94D3
:10089000D2F749825A826B827C82412C512C3201E0
:1008A000439404C0440C551C661C771C4A95D2F72F
:1008B00041E0441A510861087108482059206A2013
:1008C0007B20812C912C540183944528462847286D
:1008D00019F4812C912C540149805A806B807C80C2
:1008E00084289528A628B72846C0EF2B09F443C0D2
:1008F000840F951F28013901042E04C07694679453
:10090000579447940A94D2F749825A826B827C8228
:10091000412C512C3201439404C0440C551C661CDC
:10092000771C4A95D2F741E0441A510861087108D2
:10093000402251226222732201E010E020E030E0E8
:1009400045284628472819F400E010E0980149801E
:100950005A806B807C8004291529262937290BC0F1
:10096000A817B90724F4812C912C540104C0CD019F
:1009700000E010E09801F7014181FB01518145172A
:1009800009F446C0442349F024013501401A510AB4
:10099000620A730A9301820104C0081919092A091D
:1009A0003B0937FD05C0F6011182938382830CC099
:1009B00041E0F60141839383828330952095109521
:1009C00001951F4F2F4F3F4F048315832683378395
:1009D0000EC0880F991FAA1FBB1FF6018483958341
:1009E000A683B78382819381019793838283F601E3
:1009F00084819581A681B781AC01BD014150510927
:100A0000610971094F3F5F4F6F4F7F4310F30CC077
:100A1000F601418393838283080D191D2A1D3B1D16
:100A2000048315832683378383E0F6018083448122
:100A300055816681778177FF1AC0DB01CA01817019
:100A40009927AA27BB277695679557954795842BB5
:100A5000952BA62BB72B84839583A683B78382819E
:100A6000938101969383828302C07B0101C076014A
:100A7000C7012496E0E158C7A0E2B0E0E1E4F5E068
:100A800045C76D8F7E8F8F8F98A3298F3A8F4B8F9D
:100A90005C8FBE016F5E7F4FCE014D966DD3BE0160
:100AA000675F7F4FCE01499667D3AE014F5F5F4FBF
:100AB000BE01675F7F4FCE01419684DE93D2A09640
:100AC000E2E040C7A0E2B0E0E7E6F5E01FC76D8FC7
:100AD0007E8F8F8F98A3298F3A8F4B8F5C8FBE01AB
:100AE0006F5E7F4FCE014D9647D3BE01675F7F4F4C
:100AF000CE01499641D38A8591E089278A87AE0144
:100B00004F5F5F4FBE01675F7F4FCE0141965ADE58
:100B100069D2A096E2E016C7A0E2B0E0E1E9F5E014
:100B2000E7C66D8F7E8F8F8F98A3298F3A8F4B8F5B
:100B30005C8FBE016F5E7F4FCE014D961DD3BE010F
:100B4000675F7F4FCE01499617D39989923008F499
:100B500012C08985823008F41AC0943021F48230A2
:100B600009F4B4C008C0843021F4923009F4AEC056
:100B70000EC0923051F481E02A899A85291301C070
:100B800080E08A8BCE014196A3C0823051F481E08F
:100B90002A899A85291301C080E08A87CE010996A7
:100BA00097C08D889E88AF88B88C0D851E852F854F
:100BB0003889E0E2F0E080E090E0DC01C12CD12C4B
:100BC000760140E050E0BA0180FE18C0400F511F8E
:100BD000621F731F8C0D9D1DAE1DBF1D412C512C1E
:100BE00032014394401751076207730718F0412CF4
:100BF000512C3201840D951DA61DB71DCC0CDD1C9A
:100C0000EE1CFF1C37FF02C06894C0F8000F111FD4
:100C1000221F331FB694A794979487943197A1F617
:100C20002B893C89EB85FC852E0F3F1F2E5F3F4FA4
:100C30003C832B8321E0EA893A85E31301C020E05D
:100C40002A83EB81FC810CC080FF05C076956795F7
:100C5000579547957068B695A7959795879531965E
:100C6000B7FDF2CF9F010CC0880F991FAA1FBB1FB1
:100C700077FD8160440F551F661F771F2150310992
:100C80000097A105E0E4BE0778F32B833C838C0139
:100C90009D010F77112722273327003411052105E5
:100CA000310559F487FD09C0452B462B472B29F008
:100CB000805C9F4FAF4FBF4F80788D839E83AF8303
:100CC000B88783E08983CE01019602C081E890E075
:100CD00089D1A096E0E128C6A8E1B0E0E1E7F6E01E
:100CE0000FC66D8B7E8B8F8B988F298B3A8B4B8B9E
:100CF0005C8BBE01675F7F4FCE0145963DD2BE0142
:100D00006F5F7F4FCE01419637D29985923008F4BC
:100D100075C08981823008F474C02A853A812327FE
:100D20002A87943011F0923019F4981367C06CC080
:100D3000843039F41D861E861F86188A1C861B8601
:100D400004C0823029F484E08987CE0109965EC010
:100D50008B859C852B813C81821B930B9C878B8789
:100D60004D855E856F857889CD80DE80EF80F88443
:100D70004C155D056E057F0538F4440F551F661F41
:100D8000771F01979C878B87EFE1F0E000E010E090
:100D900020E030E480E090E0DC014C155D056E055C
:100DA0007F0540F0802B912BA22BB32B4C195D09B2
:100DB0006E097F093695279517950795440F551F9E
:100DC000661F771F319749F78C019D010F77112717
:100DD00022273327003411052105310559F487FDF9
:100DE00009C0452B462B472B29F0805C9F4FAF4F06
:100DF000BF4F80788D879E87AF87B88BCE010996CD
:100E000005C0CE01019602C081E890E0EBD0689663
:100E1000E8E092C5A8E1B0E0EFE0F7E077C56D8BC0
:100E20007E8B8F8B988F298B3A8B4B8B5C8BBE0183
:100E3000675F7F4FCE0145969FD1BE016F5F7F4FA9
:100E4000CE01419699D18985823050F089818230D6
:100E500038F0BE016F5F7F4FCE010996FCD101C013
:100E60008FEF6896E2E06EC5ACE0B0E0E9E3F7E052
:100E70004BC569877A878B879C87BE016F5F7F4FE1
:100E8000CE01099679D18981823091F1823080F149
:100E9000843041F48A81882331F100E010E020E0C1
:100EA00030E829C02B813C8137FD22C02F3131052C
:100EB0008CF78EE190E0821B930B0D811E812F81B8
:100EC000388504C036952795179507958A95D2F7EA
:100ED0008A81882381F030952095109501951F4FC8
:100EE0002F4F3F4F08C00FEF1FEF2FEF3FE703C01B
:100EF00000E010E09801B801C9012C96E4E020C59B
:100F0000A8E0B0E0E5E8F7E0FBC48B019C011A82A1
:100F1000611571058105910519F482E089835CC032
:100F200083E089834EE150E05C834B83C901B801C3
:100F300014D5019797FF39C0EE27FF27E81BF90B5F
:100F400041E050E060E070E00E2E04C0440F551FF9
:100F5000661F771F0A94D2F7415051096109710940
:100F60004023512362237323C12CD12C7601C394D7
:100F7000452B462B472B19F4C12CD12C760104C0EC
:100F80003695279517950795EA95D2F70C291D29CF
:100F90002E293F290D831E832F8338872EE130E0D1
:100FA000281B390B3C832B8317C0009729F40D8332
:100FB0001E832F83388710C0082E04C0000F111F16
:100FC000221F331F0A94D2F70D831E832F83388785
:100FD000481B590B5C834B83CE01019603D02896A6
:100FE000E8E0AAC40F931F93CF93DF93DC0114961C
:100FF0004D915D916D917C9117971196EC911197A0
:101000008C91823020F460618FEF90E0A6C0843034
:1010100009F49EC0823009F495C04115510561055F
:10102000710509F492C012962D913C9113972238C4
:101030008FEF38070CF058C0C2E8DFEFC21BD30BAC
:10104000CA31D1056CF58A019B010C2E04C036957E
:101050002795179507950A94D2F781E090E0A0E0D4
:10106000B0E00C2E04C0880F991FAA1FBB1F0A9462
:10107000D2F70197A109B10984239523A623B723A9
:1010800041E050E060E070E0892B8A2B8B2B19F453
:1010900040E050E0BA01402B512B622B732B03C070
:1010A00040E050E0BA01DB01CA018F779927AA27F7
:1010B000BB2780349105A105B10539F447FF09C06C
:1010C000405C5F4F6F4F7F4F04C0415C5F4F6F4F7D
:1010D0007F4F81E090E041155105610520E47207E2
:1010E00048F580E090E026C0203831058CF5DB0122
:1010F000CA018F779927AA27BB2780349105A105BC
:10110000B10539F447FF09C0405C5F4F6F4F7F4F17
:1011100004C0415C5F4F6F4F7F4F77FD04C0C90132
:1011200081589F4F07C07695679557954795C90198
:1011300080589F4F97E076956795579547959A9574
:10114000D1F70BC080E090E005C080E090E005C0E2
:101150008FEF90E040E050E0BA01982F9695E0FBC9
:1011600097F9362F80FB37F9642F752F832FDF9186
:10117000CF911F910F910895CF92DF92EF92DC01F2
:10118000FB01CC901196DC90119712968C911297DE
:101190003FE7E32EE8226E2DA60170E0982F991FFD
:1011A0009927991F13962C91822F880F892B90E0F5
:1011B00027FB222720F92183009729F541155105A6
:1011C0006105710511F482E027C082E89FEF9383E7
:1011D000828327E0440F551F661F771F2A95D1F79A
:1011E00083E0808309C0440F551F661F771F8281EB
:1011F000938101979383828341155105610580E4B2
:10120000780788F320C08F3F910579F44115510587
:101210006105710519F484E0808319C0E4FE03C000
:1012200081E0808310C010820EC08F579109938394
:10123000828383E0808387E0440F551F661F771FFA
:101240008A95D1F770644483558366837783EF90E2
:10125000DF90CF900895CF93FC01DB019081923015
:1012600008F452C08C91823008F44EC0943071F46E
:10127000843039F411962C9130E08181281B31099A
:1012800048C08181882309F43FC03BC0843029F4E1
:1012900011968C91811138C034C0923019F482308B
:1012A000B9F735C0823069F3C18111968C911197DD
:1012B000C8131DC02281338112968D919C91139782
:1012C000821793070CF413C0281739070CF417C0C2
:1012D000448155816681778114968D919D910D9001
:1012E000BC91A02D84179507A607B70718F4C11164
:1012F00008C00AC0481759076A077B0740F4C111A4
:1013000003C02FEF3FEF05C021E030E002C020E036
:1013100030E0C901CF91089517BA14BA11BAFED8B6
:101320008F9A979AB89AC098BB9ABD9A81E58DB961
:10133000B99ABA9A80EA8FBD8FB589608FBD80E86F
:1013400090E09BBD8ABD8091660023E1829FC00131
:10135000112499BD88BD81E08EBD8FE195E8A7E499
:10136000B2E48093E5009093E600A093E700B09389
:10137000E8008DE99FE6AAE6BEE38093F100909332
:10138000F200A093F300B093F40083E798E2AEE894
:10139000BEE38093ED009093EE00A093EF00B09336
:1013A000F00084E199E6A9E0BEE38093F600909313
:1013B000F700A093F800B093F9008093E9009093B0
:1013C000EA00A093EB00B093EC0055D77DD9A0D9EB
:1013D00002D88FEF93ED20E3815090402040E1F759
:1013E00000C000006091CC007091CD008091CE00D3
:1013F0009091CF00F9D6DCD722E0222E332433940B
:10140000C1E0D0E034E6C32ED12CB6D8882351F009
:101410007FD86091DA007091DB008091DE009091BE
:10142000DF00E2D6D3D8882371F0809166001BD804
:10143000809366006091DA007091DB008091DE009D
:101440009091DF00D1D616D9882399F020916700BA
:101450006091DA007091DB008091DE009091DF00F6
:10146000213009F003C02092670002C0309267006B
:10147000BBD66DD8882309F48BC09091670091305A
:1014800021F0923009F084C038C02091CE00309114
:10149000CF00803119F42F5F3F4F02C02150310936
:1014A0003093CF002093CE008091CE009091CF005A
:1014B00081362AEE920728F01092CF001092CE00CB
:1014C00009C0893C910530F088EC90E09093CF0002
:1014D0008093CE006091CE007091CF0080E090E0CC
:1014E0000FDD2091F1003091F2004091F300509116
:1014F000F400F2DB3ED989E035C02091CC00309178
:10150000CD00803119F42F5F3F4F02C021503109C7
:101510003093CD002093CC008091CC009091CD00F1
:1015200081362AEE920728F01092CD001092CC005E
:1015300007C08536910520F0D092CD00C092CC0036
:101540006091CC007091CD0080E090E0D9DC2091DA
:10155000F6003091F7004091F8005091F900BCDBA3
:1015600008D98AE091D56091CC007091CD0080912E
:10157000CE009091CF0038D68091620090916300A8
:101580009093610080936000D093E100C093E000ED
:101590008091600090916100009751F48091E20089
:1015A00085FD0BC080628093E200369A789405C076
:1015B000019790936100809360008091E20086FF24
:1015C000ECC0F8948091E2008F79823001F120F430
:1015D000813009F057C006C0843079F1883009F0B5
:1015E00051C042C08091DC009091DD002091E30069
:1015F0003091E400820F931F9093DD008093DC0014
:101600002092E20087B1807F87B9389A42C08091EA
:10161000D8009091D9002091E3003091E400820F2E
:10162000931F9093D9008093D80084E08093E200C8
:1016300087B1807F87B9399A2CC08091D40090916E
:10164000D5002091E3003091E400820F931F909326
:10165000D5008093D40098E09093E20087B1807F1A
:1016600087B987B1866014C08091D0009091D10075
:101670002091E3003091E400820F931F9093D100FA
:101680008093D0003092E20087B1807F87B987B124
:1016900087B98091E200883009F07FC08090DE0039
:1016A0009090DF00A090DA00B090DB004090ED0059
:1016B0005090EE006090EF007090F0006091DC00C0
:1016C0007091DD0080E090E01BDCA301920124DA40
:1016D00050D88B017093DF006093DE006091D800DA
:1016E0007091D90080E090E00BDC2091E90030910E
:1016F000EA004091EB005091EC000EDA3AD87B0101
:101700007093DB006093DA006091D4007091D50093
:1017100080E090E0F5DBA3019201FED92AD8709316
:10172000D7006093D6006091D0007091D10080E026
:1017300090E0E6DBA3019201EFD91BD87093D300B0
:101740006093D2000815190549F4EA14FB0431F43A
:101750008091E0009091E100019739F4B701C80150
:1017600043D51092E1001092E000809164009091C6
:10177000650090936100809360001092DD001092EC
:10178000DC001092D9001092D8001092D50010926F
:10179000D4001092D1001092D000D8D7843C09F424
:1017A00088C088F4813C09F447C030F4803AF1F0F5
:1017B000803C09F02ACE1CC0823C09F46DC0833CF9
:1017C00009F023CE6BC0823D09F45BC030F4803D4C
:1017D00049F1813D09F019CE49C0803E41F1813E79
:1017E00009F449C0833D09F010CE50C081EA66C0BB
:1017F000B3D7813D27E0920708F007CE9093CF0042
:101800008093CE00BC0180E090E07ADB2091F10073
:101810003091F2004091F3005091F4005DDAA9D7C5
:1018200089E022C08091DE009091DF0033C080917A
:10183000CE009091CF002EC08FD78536910508F04D
:10184000E4CD9093CD008093CC00BC0180E090E08B
:1018500057DB2091F6003091F7004091F80050914D
:10186000F9003ADA86D78AE00FD4CFCD8091DA003A
:101870009091DB0004C08091CC009091CD009AD46F
:10188000C4CD8091D2009091D30004C08091D60045
:101890009091D70049D4B9CDC09A01C0C098609149
:1018A000DA007091DB008091DE009091DF009CD423
:1018B000ACCDC09B02C081E301C080E331D78AE098
:1018C0002FD7A3CDAA1BBB1B51E107C0AA1FBB1F6B
:1018D000A617B70710F0A61BB70B881F991F5A95BC
:1018E000A9F780959095BC01CD0108952F923F9264
:1018F0004F925F926F927F928F929F92AF92BF9220
:10190000CF92DF92EF92FF920F931F93CF93DF93CB
:10191000CDB7DEB7CA1BDB0B0FB6F894DEBF0FBE28
:10192000CDBF09942A88398848885F846E847D8475
:101930008C849B84AA84B984C884DF80EE80FD8077
:101940000C811B81AA81B981CE0FD11D0FB6F894ED
:10195000DEBF0FBECDBFED01089506D084FF089510
:10196000CB0102D0805F0895AA27992329F4A85FAC
:10197000982B11F480E10895903118F4AD5F9295A1
:10198000A395990FE8F78A2F99270895F894FFCF28
:10199000102750C310270A01FF00010400000100B6
:1019A00012020503021002030200000422200502B5
:1019B0000200000000000000004469676974616C67
:1019C0000050535500563A2000205600493A200056
:1019D000206D41007E004F4E004F4646004261633D
:1019E0006B6C69676874005B202020202020202019
:0C19F0002020202020205D003D003E0053
:00000001FF
